{
  "address": "0x928105afaba47b6C45a44a155Bbb791C93BeE2FB",
  "abi": [
    {
      "anonymous": false,
      "inputs": [
        {
          "indexed": true,
          "internalType": "address",
          "name": "user",
          "type": "address"
        },
        {
          "indexed": true,
          "internalType": "uint256",
          "name": "movieId",
          "type": "uint256"
        }
      ],
      "name": "AddedToCollection",
      "type": "event"
    },
    {
      "anonymous": false,
      "inputs": [
        {
          "indexed": true,
          "internalType": "address",
          "name": "rater",
          "type": "address"
        },
        {
          "indexed": true,
          "internalType": "uint256",
          "name": "movieId",
          "type": "uint256"
        },
        {
          "indexed": false,
          "internalType": "uint8",
          "name": "score",
          "type": "uint8"
        },
        {
          "indexed": false,
          "internalType": "bool",
          "name": "isUpdate",
          "type": "bool"
        }
      ],
      "name": "MovieRated",
      "type": "event"
    },
    {
      "anonymous": false,
      "inputs": [
        {
          "indexed": true,
          "internalType": "address",
          "name": "user",
          "type": "address"
        },
        {
          "indexed": true,
          "internalType": "uint256",
          "name": "movieId",
          "type": "uint256"
        }
      ],
      "name": "RemovedFromCollection",
      "type": "event"
    },
    {
      "anonymous": false,
      "inputs": [
        {
          "indexed": true,
          "internalType": "address",
          "name": "user",
          "type": "address"
        },
        {
          "indexed": true,
          "internalType": "uint256",
          "name": "movieId",
          "type": "uint256"
        },
        {
          "indexed": false,
          "internalType": "bool",
          "name": "watched",
          "type": "bool"
        }
      ],
      "name": "WatchedStatusUpdated",
      "type": "event"
    },
    {
      "inputs": [
        {
          "internalType": "uint256",
          "name": "movieId",
          "type": "uint256"
        }
      ],
      "name": "addToCollection",
      "outputs": [],
      "stateMutability": "nonpayable",
      "type": "function"
    },
    {
      "inputs": [
        {
          "internalType": "uint256",
          "name": "movieId",
          "type": "uint256"
        },
        {
          "internalType": "address",
          "name": "user",
          "type": "address"
        }
      ],
      "name": "addToCollectionSponsored",
      "outputs": [],
      "stateMutability": "nonpayable",
      "type": "function"
    },
    {
      "inputs": [
        {
          "internalType": "uint256",
          "name": "movieId",
          "type": "uint256"
        }
      ],
      "name": "getAverageRating",
      "outputs": [
        {
          "internalType": "uint256",
          "name": "",
          "type": "uint256"
        }
      ],
      "stateMutability": "view",
      "type": "function"
    },
    {
      "inputs": [
        {
          "internalType": "uint256",
          "name": "movieId",
          "type": "uint256"
        }
      ],
      "name": "getMovieStats",
      "outputs": [
        {
          "internalType": "uint256",
          "name": "totalScore",
          "type": "uint256"
        },
        {
          "internalType": "uint256",
          "name": "ratingCount",
          "type": "uint256"
        },
        {
          "internalType": "uint256",
          "name": "averageScaled",
          "type": "uint256"
        }
      ],
      "stateMutability": "view",
      "type": "function"
    },
    {
      "inputs": [],
      "name": "getRatedMovieCount",
      "outputs": [
        {
          "internalType": "uint256",
          "name": "",
          "type": "uint256"
        }
      ],
      "stateMutability": "view",
      "type": "function"
    },
    {
      "inputs": [],
      "name": "getRatedMovieIds",
      "outputs": [
        {
          "internalType": "uint256[]",
          "name": "",
          "type": "uint256[]"
        }
      ],
      "stateMutability": "view",
      "type": "function"
    },
    {
      "inputs": [
        {
          "internalType": "address",
          "name": "user",
          "type": "address"
        }
      ],
      "name": "getUserCollection",
      "outputs": [
        {
          "internalType": "uint256[]",
          "name": "",
          "type": "uint256[]"
        }
      ],
      "stateMutability": "view",
      "type": "function"
    },
    {
      "inputs": [
        {
          "internalType": "uint256",
          "name": "movieId",
          "type": "uint256"
        },
        {
          "internalType": "address",
          "name": "user",
          "type": "address"
        }
      ],
      "name": "getUserRating",
      "outputs": [
        {
          "internalType": "uint8",
          "name": "",
          "type": "uint8"
        }
      ],
      "stateMutability": "view",
      "type": "function"
    },
    {
      "inputs": [
        {
          "internalType": "uint256",
          "name": "movieId",
          "type": "uint256"
        },
        {
          "internalType": "address",
          "name": "user",
          "type": "address"
        }
      ],
      "name": "hasUserRated",
      "outputs": [
        {
          "internalType": "bool",
          "name": "",
          "type": "bool"
        }
      ],
      "stateMutability": "view",
      "type": "function"
    },
    {
      "inputs": [
        {
          "internalType": "address",
          "name": "user",
          "type": "address"
        },
        {
          "internalType": "uint256",
          "name": "movieId",
          "type": "uint256"
        }
      ],
      "name": "isInCollection",
      "outputs": [
        {
          "internalType": "bool",
          "name": "",
          "type": "bool"
        }
      ],
      "stateMutability": "view",
      "type": "function"
    },
    {
      "inputs": [
        {
          "internalType": "address",
          "name": "user",
          "type": "address"
        },
        {
          "internalType": "uint256",
          "name": "movieId",
          "type": "uint256"
        }
      ],
      "name": "isWatched",
      "outputs": [
        {
          "internalType": "bool",
          "name": "",
          "type": "bool"
        }
      ],
      "stateMutability": "view",
      "type": "function"
    },
    {
      "inputs": [
        {
          "internalType": "uint256",
          "name": "movieId",
          "type": "uint256"
        },
        {
          "internalType": "bool",
          "name": "watched",
          "type": "bool"
        }
      ],
      "name": "markAsWatched",
      "outputs": [],
      "stateMutability": "nonpayable",
      "type": "function"
    },
    {
      "inputs": [
        {
          "internalType": "uint256",
          "name": "movieId",
          "type": "uint256"
        },
        {
          "internalType": "bool",
          "name": "watched",
          "type": "bool"
        },
        {
          "internalType": "address",
          "name": "user",
          "type": "address"
        }
      ],
      "name": "markAsWatchedSponsored",
      "outputs": [],
      "stateMutability": "nonpayable",
      "type": "function"
    },
    {
      "inputs": [
        {
          "internalType": "uint256",
          "name": "movieId",
          "type": "uint256"
        },
        {
          "internalType": "uint8",
          "name": "score",
          "type": "uint8"
        }
      ],
      "name": "rateMovie",
      "outputs": [],
      "stateMutability": "nonpayable",
      "type": "function"
    },
    {
      "inputs": [
        {
          "internalType": "uint256",
          "name": "movieId",
          "type": "uint256"
        },
        {
          "internalType": "uint8",
          "name": "score",
          "type": "uint8"
        },
        {
          "internalType": "address",
          "name": "user",
          "type": "address"
        }
      ],
      "name": "rateMovieSponsored",
      "outputs": [],
      "stateMutability": "nonpayable",
      "type": "function"
    },
    {
      "inputs": [
        {
          "internalType": "uint256",
          "name": "movieId",
          "type": "uint256"
        }
      ],
      "name": "removeFromCollection",
      "outputs": [],
      "stateMutability": "nonpayable",
      "type": "function"
    },
    {
      "inputs": [
        {
          "internalType": "uint256",
          "name": "movieId",
          "type": "uint256"
        },
        {
          "internalType": "address",
          "name": "user",
          "type": "address"
        }
      ],
      "name": "removeFromCollectionSponsored",
      "outputs": [],
      "stateMutability": "nonpayable",
      "type": "function"
    }
  ],
  "transactionHash": "0x59f6a289ef104d49ce90ee409b627ba8f57238ff5e03adc664a0e168a4caa90c",
  "args": [],
  "numDeployments": 1,
  "solcInputHash": "5868323aaed8ab1422dbaf908b69e564",
  "bytecode": "0x608060405234801561001057600080fd5b50610c56806100206000396000f3fe608060405234801561001057600080fd5b506004361061010a5760003560e01c806377c8012e116100a2578063c0b5f16711610071578063c0b5f16714610288578063c34934181461029d578063c555f8d4146102b0578063de460818146102c3578063ded53254146102d657600080fd5b806377c8012e1461023c5780639da9d0831461024f578063a1acabda14610262578063bb29f7881461027557600080fd5b80632e652cc6116100de5780632e652cc61461019d57806347e7b388146101e857806359c6d6b9146101fb57806377062bfa1461023457600080fd5b806202d5ab1461010f57806317b7e03e146101425780631cfb921714610163578063260492cf14610178575b600080fd5b61012261011d3660046109cd565b61030f565b604080519384526020840192909252908201526060015b60405180910390f35b6101556101503660046109cd565b610354565b604051908152602001610139565b610176610171366004610a02565b6103ac565b005b61018b610186366004610a02565b6103ba565b60405160ff9091168152602001610139565b6101d86101ab366004610a02565b60009182526001602090815260408084206001600160a01b0393909316845291905290205460ff16151590565b6040519015158152602001610139565b6101766101f6366004610a3e565b6103e7565b6101d8610209366004610a61565b6001600160a01b03919091166000908152600760209081526040808320938352929052205460ff1690565b600254610155565b61017661024a3660046109cd565b6103f2565b61017661025d366004610a02565b6103ff565b610176610270366004610a8b565b610409565b610176610283366004610ad8565b610419565b610290610424565b6040516101399190610afb565b6101766102ab3660046109cd565b61047c565b6102906102be366004610b3f565b610486565b6101766102d1366004610b5a565b6104f2565b6101d86102e4366004610a61565b6001600160a01b03919091166000908152600560209081526040808320938352929052205460ff1690565b6000818152602081815260408083208151808301909252805480835260019091015492820183905283928392919061034687610354565b935093509350509193909250565b600081815260208181526040808320815180830190925280548252600101549181018290529082036103895750600092915050565b6020810151815161039b906064610b95565b6103a59190610bac565b9392505050565b6103b682826104fd565b5050565b60008281526001602090815260408083206001600160a01b038516845290915290205460ff165b92915050565b6103b68282336105f8565b6103fc81336104fd565b50565b6103b68282610663565b6104148383836105f8565b505050565b6103b68282336107ff565b6060600280548060200260200160405190810160405280929190818152602001828054801561047257602002820191906000526020600020905b81548152602001906001019080831161045e575b5050505050905090565b6103fc8133610663565b6001600160a01b0381166000908152600460209081526040918290208054835181840281018401909452808452606093928301828280156104e657602002820191906000526020600020905b8154815260200190600101908083116104d2575b50505050509050919050565b6104148383836107ff565b6001600160a01b038116600090815260056020908152604080832085845290915290205460ff161561056e5760405162461bcd60e51b815260206004820152601560248201527420b63932b0b23c9034b71031b7b63632b1ba34b7b760591b60448201526064015b60405180910390fd5b6001600160a01b03811660008181526004602090815260408083208054600684528285208886528452828520819055600180820183559185528385200187905584845260058352818420878552909252808320805460ff1916909217909155518492917f4f81ca289534d8a4e76e71f7e921eb5a7e75cad300bddbd57c765bc61448e5a091a35050565b6001600160a01b0381166000818152600760209081526040808320878452825291829020805460ff191686151590811790915591519182528592917f82e65561904e6bc020dc677ffefc5fe11863ec4512bd20e6d61bc9b6202c9363910160405180910390a3505050565b6001600160a01b038116600090815260056020908152604080832085845290915290205460ff166106ca5760405162461bcd60e51b81526020600482015260116024820152702737ba1034b71031b7b63632b1ba34b7b760791b6044820152606401610565565b6001600160a01b038116600090815260046020908152604080832060068352818420868552909252822054815491929091839061070990600190610bce565b8154811061071957610719610be1565b906000526020600020015490508083838154811061073957610739610be1565b60009182526020808320909101929092556001600160a01b038616815260068252604080822084835290925220829055825483908061077a5761077a610bf7565b6000828152602080822083016000199081018390559092019092556001600160a01b0386168083526005825260408084208985528352808420805460ff1916905581845260068352808420898552909252818320839055905187927f253f61bffc07d8c9fe64d4cd5e6a0f748b5375bef524839f11651efb9621905d91a35050505050565b60018260ff1610158015610817575060058260ff1611155b6108575760405162461bcd60e51b815260206004820152601160248201527053636f7265206d75737420626520312d3560781b6044820152606401610565565b60008381526001602090815260408083206001600160a01b03851684528252808320548684529183905290912060ff909116908115801591906108b957805460ff808716916108a891861690610bce565b6108b29190610c0d565b8155610953565b8460ff168160000160008282546108d09190610c0d565b9091555050600181810180546000906108ea908490610c0d565b909155505060008681526003602052604090205460ff16610953576000868152600360205260408120805460ff191660019081179091556002805491820181559091527f405787fa12a823e0f2b7631cc41b3ba8828b3321ca811111fa75cd3aa3bb5ace018690555b60008681526001602090815260408083206001600160a01b03881680855290835292819020805460ff191660ff8a169081179091558151908152851515928101929092528892917f020a327368f649c9f7b1185fce9c96e9531d2bf59aa31a59b3f1aa6a373f7d85910160405180910390a3505050505050565b6000602082840312156109df57600080fd5b5035919050565b80356001600160a01b03811681146109fd57600080fd5b919050565b60008060408385031215610a1557600080fd5b82359150610a25602084016109e6565b90509250929050565b803580151581146109fd57600080fd5b60008060408385031215610a5157600080fd5b82359150610a2560208401610a2e565b60008060408385031215610a7457600080fd5b610a7d836109e6565b946020939093013593505050565b600080600060608486031215610aa057600080fd5b83359250610ab060208501610a2e565b9150610abe604085016109e6565b90509250925092565b803560ff811681146109fd57600080fd5b60008060408385031215610aeb57600080fd5b82359150610a2560208401610ac7565b6020808252825182820181905260009190848201906040850190845b81811015610b3357835183529284019291840191600101610b17565b50909695505050505050565b600060208284031215610b5157600080fd5b6103a5826109e6565b600080600060608486031215610b6f57600080fd5b83359250610ab060208501610ac7565b634e487b7160e01b600052601160045260246000fd5b80820281158282048414176103e1576103e1610b7f565b600082610bc957634e487b7160e01b600052601260045260246000fd5b500490565b818103818111156103e1576103e1610b7f565b634e487b7160e01b600052603260045260246000fd5b634e487b7160e01b600052603160045260246000fd5b808201808211156103e1576103e1610b7f56fea2646970667358221220c48ce27f34845035d55c6bd4ef5bbf32b187d3cd63fa914e81cf12469c89aeee64736f6c63430008140033",
  "devdoc": {
    "kind": "dev",
    "methods": {},
    "title": "WatchHubRating",
    "version": 1
  },
  "userdoc": {
    "kind": "user",
    "methods": {
      "addToCollection(uint256)": {
        "notice": "Add a title to your personal on-chain collection. Reverts on duplicate."
      },
      "addToCollectionSponsored(uint256,address)": {
        "notice": "Add a title to a user's collection (for gas sponsorship)."
      },
      "getAverageRating(uint256)": {
        "notice": "Average scaled by 100 (e.g. 425 = 4.25 stars). Returns 0 if unrated."
      },
      "getMovieStats(uint256)": {
        "notice": "Bundles totalScore, ratingCount, and averageScaled into one call."
      },
      "getUserCollection(address)": {
        "notice": "Returns all TMDB/offset ids currently in a user's collection."
      },
      "markAsWatched(uint256,bool)": {
        "notice": "Toggle watched status. Pass `watched = true` to mark watched, false to unmark."
      },
      "markAsWatchedSponsored(uint256,bool,address)": {
        "notice": "Toggle watched status for a user (for gas sponsorship)."
      },
      "rateMovie(uint256,uint8)": {
        "notice": "Rate a title 1–5 stars. Calling again updates your existing rating;         the second call never inflates the count or the sum."
      },
      "rateMovieSponsored(uint256,uint8,address)": {
        "notice": "Rate a title on behalf of a user (for gas sponsorship).         Only works with sponsor wallet which is whitelisted."
      },
      "removeFromCollection(uint256)": {
        "notice": "Remove a title from your collection. Reverts if not present."
      },
      "removeFromCollectionSponsored(uint256,address)": {
        "notice": "Remove a title from a user's collection (for gas sponsorship)."
      }
    },
    "notice": "One-wallet-one-vote community rating system + personal collection + watched tracking.         Each wallet can only ever cast ONE active rating per title — updating your score         replaces the old one rather than adding a second vote. This makes the average         tamper-resistant against bot-farming from a single address.         Movies use their TMDB movie id directly.         TV series use their TMDB tv id offset by 1_000_000_000 (done in the frontend)         so the two numbering spaces cannot collide.",
    "version": 1
  },
  "storageLayout": {
    "storage": [
      {
        "astId": 12,
        "contract": "contracts/YourContract.sol:WatchHubRating",
        "label": "stats",
        "offset": 0,
        "slot": "0",
        "type": "t_mapping(t_uint256,t_struct(MovieStats)7_storage)"
      },
      {
        "astId": 18,
        "contract": "contracts/YourContract.sol:WatchHubRating",
        "label": "userScore",
        "offset": 0,
        "slot": "1",
        "type": "t_mapping(t_uint256,t_mapping(t_address,t_uint8))"
      },
      {
        "astId": 21,
        "contract": "contracts/YourContract.sol:WatchHubRating",
        "label": "ratedMovieIds",
        "offset": 0,
        "slot": "2",
        "type": "t_array(t_uint256)dyn_storage"
      },
      {
        "astId": 25,
        "contract": "contracts/YourContract.sol:WatchHubRating",
        "label": "isTracked",
        "offset": 0,
        "slot": "3",
        "type": "t_mapping(t_uint256,t_bool)"
      },
      {
        "astId": 30,
        "contract": "contracts/YourContract.sol:WatchHubRating",
        "label": "userCollectionIds",
        "offset": 0,
        "slot": "4",
        "type": "t_mapping(t_address,t_array(t_uint256)dyn_storage)"
      },
      {
        "astId": 36,
        "contract": "contracts/YourContract.sol:WatchHubRating",
        "label": "_isInCollection",
        "offset": 0,
        "slot": "5",
        "type": "t_mapping(t_address,t_mapping(t_uint256,t_bool))"
      },
      {
        "astId": 42,
        "contract": "contracts/YourContract.sol:WatchHubRating",
        "label": "collectionIndex",
        "offset": 0,
        "slot": "6",
        "type": "t_mapping(t_address,t_mapping(t_uint256,t_uint256))"
      },
      {
        "astId": 48,
        "contract": "contracts/YourContract.sol:WatchHubRating",
        "label": "_isWatched",
        "offset": 0,
        "slot": "7",
        "type": "t_mapping(t_address,t_mapping(t_uint256,t_bool))"
      }
    ],
    "types": {
      "t_address": {
        "encoding": "inplace",
        "label": "address",
        "numberOfBytes": "20"
      },
      "t_array(t_uint256)dyn_storage": {
        "base": "t_uint256",
        "encoding": "dynamic_array",
        "label": "uint256[]",
        "numberOfBytes": "32"
      },
      "t_bool": {
        "encoding": "inplace",
        "label": "bool",
        "numberOfBytes": "1"
      },
      "t_mapping(t_address,t_array(t_uint256)dyn_storage)": {
        "encoding": "mapping",
        "key": "t_address",
        "label": "mapping(address => uint256[])",
        "numberOfBytes": "32",
        "value": "t_array(t_uint256)dyn_storage"
      },
      "t_mapping(t_address,t_mapping(t_uint256,t_bool))": {
        "encoding": "mapping",
        "key": "t_address",
        "label": "mapping(address => mapping(uint256 => bool))",
        "numberOfBytes": "32",
        "value": "t_mapping(t_uint256,t_bool)"
      },
      "t_mapping(t_address,t_mapping(t_uint256,t_uint256))": {
        "encoding": "mapping",
        "key": "t_address",
        "label": "mapping(address => mapping(uint256 => uint256))",
        "numberOfBytes": "32",
        "value": "t_mapping(t_uint256,t_uint256)"
      },
      "t_mapping(t_address,t_uint8)": {
        "encoding": "mapping",
        "key": "t_address",
        "label": "mapping(address => uint8)",
        "numberOfBytes": "32",
        "value": "t_uint8"
      },
      "t_mapping(t_uint256,t_bool)": {
        "encoding": "mapping",
        "key": "t_uint256",
        "label": "mapping(uint256 => bool)",
        "numberOfBytes": "32",
        "value": "t_bool"
      },
      "t_mapping(t_uint256,t_mapping(t_address,t_uint8))": {
        "encoding": "mapping",
        "key": "t_uint256",
        "label": "mapping(uint256 => mapping(address => uint8))",
        "numberOfBytes": "32",
        "value": "t_mapping(t_address,t_uint8)"
      },
      "t_mapping(t_uint256,t_struct(MovieStats)7_storage)": {
        "encoding": "mapping",
        "key": "t_uint256",
        "label": "mapping(uint256 => struct WatchHubRating.MovieStats)",
        "numberOfBytes": "32",
        "value": "t_struct(MovieStats)7_storage"
      },
      "t_mapping(t_uint256,t_uint256)": {
        "encoding": "mapping",
        "key": "t_uint256",
        "label": "mapping(uint256 => uint256)",
        "numberOfBytes": "32",
        "value": "t_uint256"
      },
      "t_struct(MovieStats)7_storage": {
        "encoding": "inplace",
        "label": "struct WatchHubRating.MovieStats",
        "members": [
          {
            "astId": 4,
            "contract": "contracts/YourContract.sol:WatchHubRating",
            "label": "totalScore",
            "offset": 0,
            "slot": "0",
            "type": "t_uint256"
          },
          {
            "astId": 6,
            "contract": "contracts/YourContract.sol:WatchHubRating",
            "label": "ratingCount",
            "offset": 0,
            "slot": "1",
            "type": "t_uint256"
          }
        ],
        "numberOfBytes": "64"
      },
      "t_uint256": {
        "encoding": "inplace",
        "label": "uint256",
        "numberOfBytes": "32"
      },
      "t_uint8": {
        "encoding": "inplace",
        "label": "uint8",
        "numberOfBytes": "1"
      }
    }
  }
}