{
  "address": "0xAef57A3Af62E12a11dc104825779Df993c0CA2b5",
  "abi": [
    {
      "anonymous": false,
      "inputs": [
        {
          "indexed": true,
          "internalType": "address",
          "name": "user",
          "type": "address"
        },
        {
          "indexed": true,
          "internalType": "uint256",
          "name": "movieId",
          "type": "uint256"
        }
      ],
      "name": "AddedToCollection",
      "type": "event"
    },
    {
      "anonymous": false,
      "inputs": [
        {
          "indexed": true,
          "internalType": "address",
          "name": "rater",
          "type": "address"
        },
        {
          "indexed": true,
          "internalType": "uint256",
          "name": "movieId",
          "type": "uint256"
        },
        {
          "indexed": false,
          "internalType": "uint8",
          "name": "score",
          "type": "uint8"
        },
        {
          "indexed": false,
          "internalType": "bool",
          "name": "isUpdate",
          "type": "bool"
        }
      ],
      "name": "MovieRated",
      "type": "event"
    },
    {
      "anonymous": false,
      "inputs": [
        {
          "indexed": true,
          "internalType": "address",
          "name": "user",
          "type": "address"
        },
        {
          "indexed": true,
          "internalType": "uint256",
          "name": "movieId",
          "type": "uint256"
        }
      ],
      "name": "RemovedFromCollection",
      "type": "event"
    },
    {
      "anonymous": false,
      "inputs": [
        {
          "indexed": true,
          "internalType": "address",
          "name": "user",
          "type": "address"
        },
        {
          "indexed": true,
          "internalType": "uint256",
          "name": "movieId",
          "type": "uint256"
        },
        {
          "indexed": false,
          "internalType": "bool",
          "name": "watched",
          "type": "bool"
        }
      ],
      "name": "WatchedStatusUpdated",
      "type": "event"
    },
    {
      "inputs": [
        {
          "internalType": "uint256",
          "name": "movieId",
          "type": "uint256"
        }
      ],
      "name": "addToCollection",
      "outputs": [],
      "stateMutability": "nonpayable",
      "type": "function"
    },
    {
      "inputs": [
        {
          "internalType": "uint256",
          "name": "movieId",
          "type": "uint256"
        }
      ],
      "name": "getAverageRating",
      "outputs": [
        {
          "internalType": "uint256",
          "name": "",
          "type": "uint256"
        }
      ],
      "stateMutability": "view",
      "type": "function"
    },
    {
      "inputs": [
        {
          "internalType": "uint256",
          "name": "movieId",
          "type": "uint256"
        }
      ],
      "name": "getMovieStats",
      "outputs": [
        {
          "internalType": "uint256",
          "name": "totalScore",
          "type": "uint256"
        },
        {
          "internalType": "uint256",
          "name": "ratingCount",
          "type": "uint256"
        },
        {
          "internalType": "uint256",
          "name": "averageScaled",
          "type": "uint256"
        }
      ],
      "stateMutability": "view",
      "type": "function"
    },
    {
      "inputs": [],
      "name": "getRatedMovieCount",
      "outputs": [
        {
          "internalType": "uint256",
          "name": "",
          "type": "uint256"
        }
      ],
      "stateMutability": "view",
      "type": "function"
    },
    {
      "inputs": [],
      "name": "getRatedMovieIds",
      "outputs": [
        {
          "internalType": "uint256[]",
          "name": "",
          "type": "uint256[]"
        }
      ],
      "stateMutability": "view",
      "type": "function"
    },
    {
      "inputs": [
        {
          "internalType": "address",
          "name": "user",
          "type": "address"
        }
      ],
      "name": "getUserCollection",
      "outputs": [
        {
          "internalType": "uint256[]",
          "name": "",
          "type": "uint256[]"
        }
      ],
      "stateMutability": "view",
      "type": "function"
    },
    {
      "inputs": [
        {
          "internalType": "uint256",
          "name": "movieId",
          "type": "uint256"
        },
        {
          "internalType": "address",
          "name": "user",
          "type": "address"
        }
      ],
      "name": "getUserRating",
      "outputs": [
        {
          "internalType": "uint8",
          "name": "",
          "type": "uint8"
        }
      ],
      "stateMutability": "view",
      "type": "function"
    },
    {
      "inputs": [
        {
          "internalType": "uint256",
          "name": "movieId",
          "type": "uint256"
        },
        {
          "internalType": "address",
          "name": "user",
          "type": "address"
        }
      ],
      "name": "hasUserRated",
      "outputs": [
        {
          "internalType": "bool",
          "name": "",
          "type": "bool"
        }
      ],
      "stateMutability": "view",
      "type": "function"
    },
    {
      "inputs": [
        {
          "internalType": "address",
          "name": "user",
          "type": "address"
        },
        {
          "internalType": "uint256",
          "name": "movieId",
          "type": "uint256"
        }
      ],
      "name": "isInCollection",
      "outputs": [
        {
          "internalType": "bool",
          "name": "",
          "type": "bool"
        }
      ],
      "stateMutability": "view",
      "type": "function"
    },
    {
      "inputs": [
        {
          "internalType": "address",
          "name": "user",
          "type": "address"
        },
        {
          "internalType": "uint256",
          "name": "movieId",
          "type": "uint256"
        }
      ],
      "name": "isWatched",
      "outputs": [
        {
          "internalType": "bool",
          "name": "",
          "type": "bool"
        }
      ],
      "stateMutability": "view",
      "type": "function"
    },
    {
      "inputs": [
        {
          "internalType": "uint256",
          "name": "movieId",
          "type": "uint256"
        },
        {
          "internalType": "bool",
          "name": "watched",
          "type": "bool"
        }
      ],
      "name": "markAsWatched",
      "outputs": [],
      "stateMutability": "nonpayable",
      "type": "function"
    },
    {
      "inputs": [
        {
          "internalType": "uint256",
          "name": "movieId",
          "type": "uint256"
        },
        {
          "internalType": "uint8",
          "name": "score",
          "type": "uint8"
        }
      ],
      "name": "rateMovie",
      "outputs": [],
      "stateMutability": "nonpayable",
      "type": "function"
    },
    {
      "inputs": [
        {
          "internalType": "uint256",
          "name": "movieId",
          "type": "uint256"
        }
      ],
      "name": "removeFromCollection",
      "outputs": [],
      "stateMutability": "nonpayable",
      "type": "function"
    }
  ],
  "transactionHash": "0x96a6b6259791bb594ce273bd291c6d1415a8c2e4cfd2bc01a2a3c7fc4af2767c",
  "args": [],
  "numDeployments": 1,
  "solcInputHash": "9eff615e9e6ce7dbba77fa06c197a65e",
  "bytecode": "0x608060405234801561001057600080fd5b50610ab1806100206000396000f3fe608060405234801561001057600080fd5b50600436106100ce5760003560e01c806377062bfa1161008c578063c0b5f16711610066578063c0b5f16714610213578063c349341814610228578063c555f8d41461023b578063ded532541461024e57600080fd5b806377062bfa146101e557806377c8012e146101ed578063bb29f7881461020057600080fd5b806202d5ab146100d357806317b7e03e14610106578063260492cf146101275780632e652cc61461014c57806347e7b3881461019757806359c6d6b9146101ac575b600080fd5b6100e66100e1366004610890565b610287565b604080519384526020840192909252908201526060015b60405180910390f35b610119610114366004610890565b6102cc565b6040519081526020016100fd565b61013a6101353660046108c5565b610324565b60405160ff90911681526020016100fd565b61018761015a3660046108c5565b60009182526001602090815260408084206001600160a01b0393909316845291905290205460ff16151590565b60405190151581526020016100fd565b6101aa6101a53660046108f1565b610351565b005b6101876101ba366004610926565b6001600160a01b03919091166000908152600760209081526040808320938352929052205460ff1690565b600254610119565b6101aa6101fb366004610890565b6103b2565b6101aa61020e366004610950565b61049a565b61021b610655565b6040516100fd919061097b565b6101aa610236366004610890565b6106ad565b61021b6102493660046109bf565b610824565b61018761025c366004610926565b6001600160a01b03919091166000908152600560209081526040808320938352929052205460ff1690565b600081815260208181526040808320815180830190925280548083526001909101549282018390528392839291906102be876102cc565b935093509350509193909250565b600081815260208181526040808320815180830190925280548252600101549181018290529082036103015750600092915050565b602081015181516103139060646109f0565b61031d9190610a07565b9392505050565b60008281526001602090815260408083206001600160a01b038516845290915290205460ff165b92915050565b336000818152600760209081526040808320868452825291829020805460ff191685151590811790915591519182528492917f82e65561904e6bc020dc677ffefc5fe11863ec4512bd20e6d61bc9b6202c9363910160405180910390a35050565b33600090815260056020908152604080832084845290915290205460ff161561041a5760405162461bcd60e51b815260206004820152601560248201527420b63932b0b23c9034b71031b7b63632b1ba34b7b760591b60448201526064015b60405180910390fd5b3360008181526004602090815260408083208054600684528285208786528452828520819055600180820183559185528385200186905584845260058352818420868552909252808320805460ff1916909217909155518392917f4f81ca289534d8a4e76e71f7e921eb5a7e75cad300bddbd57c765bc61448e5a091a350565b60018160ff16101580156104b2575060058160ff1611155b6104f25760405162461bcd60e51b815260206004820152601160248201527053636f7265206d75737420626520312d3560781b6044820152606401610411565b60008281526001602090815260408083203384528252808320548584529183905290912060ff9091169081158015919061054b57805460ff8086169161053a91861690610a29565b6105449190610a3c565b81556105e5565b8360ff168160000160008282546105629190610a3c565b90915550506001818101805460009061057c908490610a3c565b909155505060008581526003602052604090205460ff166105e5576000858152600360205260408120805460ff191660019081179091556002805491820181559091527f405787fa12a823e0f2b7631cc41b3ba8828b3321ca811111fa75cd3aa3bb5ace018590555b60008581526001602090815260408083203380855290835292819020805460ff191660ff89169081179091558151908152851515928101929092528792917f020a327368f649c9f7b1185fce9c96e9531d2bf59aa31a59b3f1aa6a373f7d85910160405180910390a35050505050565b606060028054806020026020016040519081016040528092919081815260200182805480156106a357602002820191906000526020600020905b81548152602001906001019080831161068f575b5050505050905090565b33600090815260056020908152604080832084845290915290205460ff1661070b5760405162461bcd60e51b81526020600482015260116024820152702737ba1034b71031b7b63632b1ba34b7b760791b6044820152606401610411565b33600090815260046020908152604080832060068352818420858552909252822054815491929091839061074190600190610a29565b8154811061075157610751610a4f565b906000526020600020015490508083838154811061077157610771610a4f565b60009182526020808320909101929092553381526006825260408082208483529092522082905582548390806107a9576107a9610a65565b600082815260208082208301600019908101839055909201909255338083526005825260408084208885528352808420805460ff1916905581845260068352808420888552909252818320839055905186927f253f61bffc07d8c9fe64d4cd5e6a0f748b5375bef524839f11651efb9621905d91a350505050565b6001600160a01b03811660009081526004602090815260409182902080548351818402810184019094528084526060939283018282801561088457602002820191906000526020600020905b815481526020019060010190808311610870575b50505050509050919050565b6000602082840312156108a257600080fd5b5035919050565b80356001600160a01b03811681146108c057600080fd5b919050565b600080604083850312156108d857600080fd5b823591506108e8602084016108a9565b90509250929050565b6000806040838503121561090457600080fd5b823591506020830135801515811461091b57600080fd5b809150509250929050565b6000806040838503121561093957600080fd5b610942836108a9565b946020939093013593505050565b6000806040838503121561096357600080fd5b82359150602083013560ff8116811461091b57600080fd5b6020808252825182820181905260009190848201906040850190845b818110156109b357835183529284019291840191600101610997565b50909695505050505050565b6000602082840312156109d157600080fd5b61031d826108a9565b634e487b7160e01b600052601160045260246000fd5b808202811582820484141761034b5761034b6109da565b600082610a2457634e487b7160e01b600052601260045260246000fd5b500490565b8181038181111561034b5761034b6109da565b8082018082111561034b5761034b6109da565b634e487b7160e01b600052603260045260246000fd5b634e487b7160e01b600052603160045260246000fdfea26469706673582212203bc5df888689c4393f8e4199e32f66ea7fb754c0ae109779a201bcb75277f00164736f6c63430008140033",
  "devdoc": {
    "kind": "dev",
    "methods": {},
    "title": "WatchHubRating",
    "version": 1
  },
  "userdoc": {
    "kind": "user",
    "methods": {
      "addToCollection(uint256)": {
        "notice": "Add a title to your personal on-chain collection. Reverts on duplicate."
      },
      "getAverageRating(uint256)": {
        "notice": "Average scaled by 100 (e.g. 425 = 4.25 stars). Returns 0 if unrated."
      },
      "getMovieStats(uint256)": {
        "notice": "Bundles totalScore, ratingCount, and averageScaled into one call."
      },
      "getUserCollection(address)": {
        "notice": "Returns all TMDB/offset ids currently in a user's collection."
      },
      "markAsWatched(uint256,bool)": {
        "notice": "Toggle watched status. Pass `watched = true` to mark watched, false to unmark."
      },
      "rateMovie(uint256,uint8)": {
        "notice": "Rate a title 1–5 stars. Calling again updates your existing rating;         the second call never inflates the count or the sum."
      },
      "removeFromCollection(uint256)": {
        "notice": "Remove a title from your collection. Reverts if not present."
      }
    },
    "notice": "One-wallet-one-vote community rating system + personal collection + watched tracking.         Each wallet can only ever cast ONE active rating per title — updating your score         replaces the old one rather than adding a second vote. This makes the average         tamper-resistant against bot-farming from a single address.         Movies use their TMDB movie id directly.         TV series use their TMDB tv id offset by 1_000_000_000 (done in the frontend)         so the two numbering spaces cannot collide.",
    "version": 1
  },
  "storageLayout": {
    "storage": [
      {
        "astId": 12,
        "contract": "contracts/YourContract.sol:WatchHubRating",
        "label": "stats",
        "offset": 0,
        "slot": "0",
        "type": "t_mapping(t_uint256,t_struct(MovieStats)7_storage)"
      },
      {
        "astId": 18,
        "contract": "contracts/YourContract.sol:WatchHubRating",
        "label": "userScore",
        "offset": 0,
        "slot": "1",
        "type": "t_mapping(t_uint256,t_mapping(t_address,t_uint8))"
      },
      {
        "astId": 21,
        "contract": "contracts/YourContract.sol:WatchHubRating",
        "label": "ratedMovieIds",
        "offset": 0,
        "slot": "2",
        "type": "t_array(t_uint256)dyn_storage"
      },
      {
        "astId": 25,
        "contract": "contracts/YourContract.sol:WatchHubRating",
        "label": "isTracked",
        "offset": 0,
        "slot": "3",
        "type": "t_mapping(t_uint256,t_bool)"
      },
      {
        "astId": 30,
        "contract": "contracts/YourContract.sol:WatchHubRating",
        "label": "userCollectionIds",
        "offset": 0,
        "slot": "4",
        "type": "t_mapping(t_address,t_array(t_uint256)dyn_storage)"
      },
      {
        "astId": 36,
        "contract": "contracts/YourContract.sol:WatchHubRating",
        "label": "_isInCollection",
        "offset": 0,
        "slot": "5",
        "type": "t_mapping(t_address,t_mapping(t_uint256,t_bool))"
      },
      {
        "astId": 42,
        "contract": "contracts/YourContract.sol:WatchHubRating",
        "label": "collectionIndex",
        "offset": 0,
        "slot": "6",
        "type": "t_mapping(t_address,t_mapping(t_uint256,t_uint256))"
      },
      {
        "astId": 48,
        "contract": "contracts/YourContract.sol:WatchHubRating",
        "label": "_isWatched",
        "offset": 0,
        "slot": "7",
        "type": "t_mapping(t_address,t_mapping(t_uint256,t_bool))"
      }
    ],
    "types": {
      "t_address": {
        "encoding": "inplace",
        "label": "address",
        "numberOfBytes": "20"
      },
      "t_array(t_uint256)dyn_storage": {
        "base": "t_uint256",
        "encoding": "dynamic_array",
        "label": "uint256[]",
        "numberOfBytes": "32"
      },
      "t_bool": {
        "encoding": "inplace",
        "label": "bool",
        "numberOfBytes": "1"
      },
      "t_mapping(t_address,t_array(t_uint256)dyn_storage)": {
        "encoding": "mapping",
        "key": "t_address",
        "label": "mapping(address => uint256[])",
        "numberOfBytes": "32",
        "value": "t_array(t_uint256)dyn_storage"
      },
      "t_mapping(t_address,t_mapping(t_uint256,t_bool))": {
        "encoding": "mapping",
        "key": "t_address",
        "label": "mapping(address => mapping(uint256 => bool))",
        "numberOfBytes": "32",
        "value": "t_mapping(t_uint256,t_bool)"
      },
      "t_mapping(t_address,t_mapping(t_uint256,t_uint256))": {
        "encoding": "mapping",
        "key": "t_address",
        "label": "mapping(address => mapping(uint256 => uint256))",
        "numberOfBytes": "32",
        "value": "t_mapping(t_uint256,t_uint256)"
      },
      "t_mapping(t_address,t_uint8)": {
        "encoding": "mapping",
        "key": "t_address",
        "label": "mapping(address => uint8)",
        "numberOfBytes": "32",
        "value": "t_uint8"
      },
      "t_mapping(t_uint256,t_bool)": {
        "encoding": "mapping",
        "key": "t_uint256",
        "label": "mapping(uint256 => bool)",
        "numberOfBytes": "32",
        "value": "t_bool"
      },
      "t_mapping(t_uint256,t_mapping(t_address,t_uint8))": {
        "encoding": "mapping",
        "key": "t_uint256",
        "label": "mapping(uint256 => mapping(address => uint8))",
        "numberOfBytes": "32",
        "value": "t_mapping(t_address,t_uint8)"
      },
      "t_mapping(t_uint256,t_struct(MovieStats)7_storage)": {
        "encoding": "mapping",
        "key": "t_uint256",
        "label": "mapping(uint256 => struct WatchHubRating.MovieStats)",
        "numberOfBytes": "32",
        "value": "t_struct(MovieStats)7_storage"
      },
      "t_mapping(t_uint256,t_uint256)": {
        "encoding": "mapping",
        "key": "t_uint256",
        "label": "mapping(uint256 => uint256)",
        "numberOfBytes": "32",
        "value": "t_uint256"
      },
      "t_struct(MovieStats)7_storage": {
        "encoding": "inplace",
        "label": "struct WatchHubRating.MovieStats",
        "members": [
          {
            "astId": 4,
            "contract": "contracts/YourContract.sol:WatchHubRating",
            "label": "totalScore",
            "offset": 0,
            "slot": "0",
            "type": "t_uint256"
          },
          {
            "astId": 6,
            "contract": "contracts/YourContract.sol:WatchHubRating",
            "label": "ratingCount",
            "offset": 0,
            "slot": "1",
            "type": "t_uint256"
          }
        ],
        "numberOfBytes": "64"
      },
      "t_uint256": {
        "encoding": "inplace",
        "label": "uint256",
        "numberOfBytes": "32"
      },
      "t_uint8": {
        "encoding": "inplace",
        "label": "uint8",
        "numberOfBytes": "1"
      }
    }
  }
}