{
  "address": "0xf4EC4D3f933645953eB62B8800ca3606573B0A31",
  "abi": [
    {
      "anonymous": false,
      "inputs": [
        {
          "indexed": true,
          "internalType": "address",
          "name": "rater",
          "type": "address"
        },
        {
          "indexed": true,
          "internalType": "uint256",
          "name": "movieId",
          "type": "uint256"
        },
        {
          "indexed": false,
          "internalType": "uint8",
          "name": "score",
          "type": "uint8"
        },
        {
          "indexed": false,
          "internalType": "bool",
          "name": "isUpdate",
          "type": "bool"
        }
      ],
      "name": "MovieRated",
      "type": "event"
    },
    {
      "inputs": [
        {
          "internalType": "uint256",
          "name": "movieId",
          "type": "uint256"
        }
      ],
      "name": "getAverageRating",
      "outputs": [
        {
          "internalType": "uint256",
          "name": "averageScaled",
          "type": "uint256"
        }
      ],
      "stateMutability": "view",
      "type": "function"
    },
    {
      "inputs": [
        {
          "internalType": "uint256",
          "name": "movieId",
          "type": "uint256"
        }
      ],
      "name": "getMovieStats",
      "outputs": [
        {
          "internalType": "uint256",
          "name": "totalScore",
          "type": "uint256"
        },
        {
          "internalType": "uint256",
          "name": "ratingCount",
          "type": "uint256"
        },
        {
          "internalType": "uint256",
          "name": "averageScaled",
          "type": "uint256"
        }
      ],
      "stateMutability": "view",
      "type": "function"
    },
    {
      "inputs": [],
      "name": "getRatedMovieCount",
      "outputs": [
        {
          "internalType": "uint256",
          "name": "",
          "type": "uint256"
        }
      ],
      "stateMutability": "view",
      "type": "function"
    },
    {
      "inputs": [],
      "name": "getRatedMovieIds",
      "outputs": [
        {
          "internalType": "uint256[]",
          "name": "",
          "type": "uint256[]"
        }
      ],
      "stateMutability": "view",
      "type": "function"
    },
    {
      "inputs": [
        {
          "internalType": "uint256",
          "name": "movieId",
          "type": "uint256"
        },
        {
          "internalType": "address",
          "name": "user",
          "type": "address"
        }
      ],
      "name": "getUserRating",
      "outputs": [
        {
          "internalType": "uint8",
          "name": "",
          "type": "uint8"
        }
      ],
      "stateMutability": "view",
      "type": "function"
    },
    {
      "inputs": [
        {
          "internalType": "uint256",
          "name": "movieId",
          "type": "uint256"
        },
        {
          "internalType": "address",
          "name": "user",
          "type": "address"
        }
      ],
      "name": "hasUserRated",
      "outputs": [
        {
          "internalType": "bool",
          "name": "",
          "type": "bool"
        }
      ],
      "stateMutability": "view",
      "type": "function"
    },
    {
      "inputs": [
        {
          "internalType": "uint256",
          "name": "movieId",
          "type": "uint256"
        },
        {
          "internalType": "uint8",
          "name": "score",
          "type": "uint8"
        }
      ],
      "name": "rateMovie",
      "outputs": [],
      "stateMutability": "nonpayable",
      "type": "function"
    }
  ],
  "transactionHash": "0xb1e06b8ad561bfc17e9669aeeef2fbd52ef7b4cdb1151cc4fbc88db90621c489",
  "args": [],
  "numDeployments": 1,
  "solcInputHash": "34ea7a5b3c8f739301ac7de84abed10d",
  "bytecode": "0x608060405234801561001057600080fd5b506105c7806100206000396000f3fe608060405234801561001057600080fd5b506004361061007c5760003560e01c80632e652cc61161005b5780632e652cc6146100fa57806377062bfa14610145578063bb29f7881461014d578063c0b5f1671461016257600080fd5b806202d5ab1461008157806317b7e03e146100b4578063260492cf146100d5575b600080fd5b61009461008f366004610458565b610177565b604080519384526020840192909252908201526060015b60405180910390f35b6100c76100c2366004610458565b6101bc565b6040519081526020016100ab565b6100e86100e3366004610471565b610214565b60405160ff90911681526020016100ab565b610135610108366004610471565b60009182526001602090815260408084206001600160a01b0393909316845291905290205460ff16151590565b60405190151581526020016100ab565b6002546100c7565b61016061015b3660046104ad565b610241565b005b61016a610400565b6040516100ab91906104d8565b600081815260208181526040808320815180830190925280548083526001909101549282018390528392839291906101ae876101bc565b935093509350509193909250565b600081815260208181526040808320815180830190925280548252600101549181018290529082036101f15750600092915050565b60208101518151610203906064610532565b61020d9190610549565b9392505050565b60008281526001602090815260408083206001600160a01b038516845290915290205460ff165b92915050565b60018160ff1610158015610259575060058160ff1611155b61029d5760405162461bcd60e51b815260206004820152601160248201527053636f7265206d75737420626520312d3560781b604482015260640160405180910390fd5b60008281526001602090815260408083203384528252808320548584529183905290912060ff909116908115801591906102f657805460ff808616916102e59186169061056b565b6102ef919061057e565b8155610390565b8360ff1681600001600082825461030d919061057e565b90915550506001818101805460009061032790849061057e565b909155505060008581526003602052604090205460ff16610390576000858152600360205260408120805460ff191660019081179091556002805491820181559091527f405787fa12a823e0f2b7631cc41b3ba8828b3321ca811111fa75cd3aa3bb5ace018590555b60008581526001602090815260408083203380855290835292819020805460ff191660ff89169081179091558151908152851515928101929092528792917f020a327368f649c9f7b1185fce9c96e9531d2bf59aa31a59b3f1aa6a373f7d85910160405180910390a35050505050565b6060600280548060200260200160405190810160405280929190818152602001828054801561044e57602002820191906000526020600020905b81548152602001906001019080831161043a575b5050505050905090565b60006020828403121561046a57600080fd5b5035919050565b6000806040838503121561048457600080fd5b8235915060208301356001600160a01b03811681146104a257600080fd5b809150509250929050565b600080604083850312156104c057600080fd5b82359150602083013560ff811681146104a257600080fd5b6020808252825182820181905260009190848201906040850190845b81811015610510578351835292840192918401916001016104f4565b50909695505050505050565b634e487b7160e01b600052601160045260246000fd5b808202811582820484141761023b5761023b61051c565b60008261056657634e487b7160e01b600052601260045260246000fd5b500490565b8181038181111561023b5761023b61051c565b8082018082111561023b5761023b61051c56fea26469706673582212204b13b0910fe1753a0138381c0d1a6b3f462002bbfc29a11cc748337771877f1a64736f6c63430008140033",
  "devdoc": {
    "kind": "dev",
    "methods": {},
    "title": "WatchHubRating",
    "version": 1
  },
  "userdoc": {
    "kind": "user",
    "methods": {
      "getAverageRating(uint256)": {
        "notice": "Average rating scaled by 100 (e.g. 425 means 4.25 stars). Returns 0 if unrated."
      },
      "getMovieStats(uint256)": {
        "notice": "Convenience getter bundling raw totals and the computed average."
      },
      "getRatedMovieIds()": {
        "notice": "All movie ids that have at least one onchain rating so far.         Useful for the frontend to build the \"top rated\" / \"hit movies\" list."
      },
      "rateMovie(uint256,uint8)": {
        "notice": "Rate a movie from 1 to 5 stars. Calling this again for the same movie         updates your existing rating instead of adding a second vote."
      }
    },
    "notice": "Lets any wallet cast one rating (1-5) per movie, identified by its TMDB movie id.         A wallet can update its own rating, but it can never count twice toward the         average — this is what makes the score resistant to bot-farming or review         manipulation from a single address.",
    "version": 1
  },
  "storageLayout": {
    "storage": [
      {
        "astId": 12,
        "contract": "contracts/YourContract.sol:WatchHubRating",
        "label": "stats",
        "offset": 0,
        "slot": "0",
        "type": "t_mapping(t_uint256,t_struct(MovieStats)7_storage)"
      },
      {
        "astId": 18,
        "contract": "contracts/YourContract.sol:WatchHubRating",
        "label": "userScore",
        "offset": 0,
        "slot": "1",
        "type": "t_mapping(t_uint256,t_mapping(t_address,t_uint8))"
      },
      {
        "astId": 21,
        "contract": "contracts/YourContract.sol:WatchHubRating",
        "label": "ratedMovieIds",
        "offset": 0,
        "slot": "2",
        "type": "t_array(t_uint256)dyn_storage"
      },
      {
        "astId": 25,
        "contract": "contracts/YourContract.sol:WatchHubRating",
        "label": "isTracked",
        "offset": 0,
        "slot": "3",
        "type": "t_mapping(t_uint256,t_bool)"
      }
    ],
    "types": {
      "t_address": {
        "encoding": "inplace",
        "label": "address",
        "numberOfBytes": "20"
      },
      "t_array(t_uint256)dyn_storage": {
        "base": "t_uint256",
        "encoding": "dynamic_array",
        "label": "uint256[]",
        "numberOfBytes": "32"
      },
      "t_bool": {
        "encoding": "inplace",
        "label": "bool",
        "numberOfBytes": "1"
      },
      "t_mapping(t_address,t_uint8)": {
        "encoding": "mapping",
        "key": "t_address",
        "label": "mapping(address => uint8)",
        "numberOfBytes": "32",
        "value": "t_uint8"
      },
      "t_mapping(t_uint256,t_bool)": {
        "encoding": "mapping",
        "key": "t_uint256",
        "label": "mapping(uint256 => bool)",
        "numberOfBytes": "32",
        "value": "t_bool"
      },
      "t_mapping(t_uint256,t_mapping(t_address,t_uint8))": {
        "encoding": "mapping",
        "key": "t_uint256",
        "label": "mapping(uint256 => mapping(address => uint8))",
        "numberOfBytes": "32",
        "value": "t_mapping(t_address,t_uint8)"
      },
      "t_mapping(t_uint256,t_struct(MovieStats)7_storage)": {
        "encoding": "mapping",
        "key": "t_uint256",
        "label": "mapping(uint256 => struct WatchHubRating.MovieStats)",
        "numberOfBytes": "32",
        "value": "t_struct(MovieStats)7_storage"
      },
      "t_struct(MovieStats)7_storage": {
        "encoding": "inplace",
        "label": "struct WatchHubRating.MovieStats",
        "members": [
          {
            "astId": 4,
            "contract": "contracts/YourContract.sol:WatchHubRating",
            "label": "totalScore",
            "offset": 0,
            "slot": "0",
            "type": "t_uint256"
          },
          {
            "astId": 6,
            "contract": "contracts/YourContract.sol:WatchHubRating",
            "label": "ratingCount",
            "offset": 0,
            "slot": "1",
            "type": "t_uint256"
          }
        ],
        "numberOfBytes": "64"
      },
      "t_uint256": {
        "encoding": "inplace",
        "label": "uint256",
        "numberOfBytes": "32"
      },
      "t_uint8": {
        "encoding": "inplace",
        "label": "uint8",
        "numberOfBytes": "1"
      }
    }
  }
}